:100000000A128A11612900308A000408840A8207D2
:100010000034013400340A34003464340034E834E9
:100020000334103427344434693473347434613401
:100030006E34633465343A342034253464342034E7
:1000400063346D342C342034543465346D3470345E
:1000500065347234613474347534723465343A34CE
:10006000203425346434203443342C342034503448
:10007000493452343A342034253464340D340A344B
:100080000034443469347334743461346E3463340A
:1000900065343A34203431343834323420346334E3
:1000A0006D342C342034543465346D3470346534FC
:1000B0007234613474347534723465343A342034B3
:1000C00032343534203443342C34203450344934E1
:0C00D00052343A34203431340A34003405
:1002C20083010A128A115C2E0030831203138619ED
:1002D20001300800F1001930F00071088400700844
:1002E200831780000800F0007629831203130C1E86
:1002F2007B297C2976297008990008001930831619
:10030200031399002430980090308312031398004D
:1003120083160313071387170800F100710883126D
:1003220003138800071087100715F930F0006400E6
:10033200F00B98299C29640083120313071108000B
:10034200F100710883120313880007148710071540
:10035200F930F0006400F00BAB29AF29640083127E
:10036200031307110800F200C329720884008317DF
:1003720000080A128A1174210A128A110130F1004E
:100382007108F2077208840083178008031DCA29C6
:10039200CB29B629080038300A128A118E210A1296
:1003A2008A1101300A128A118E210A128A1106302C
:1003B2000A128A118E210A128A110C300A128A112B
:1003C2008E210A128A11080003100030031801302E
:1003D20083120313AD00AB1FEF29F029F829AA09F4
:1003E200AB09AA0A0319AB0AAD010314AD0D2A0821
:1003F200F0002B08F100F2018E30FC007C08F300C3
:100402002D08FD007D08F4000A128A1169230A12E0
:100412008A11700883120313AA007108AB007208D4
:10042200AC000800790878040319182A192A492A05
:10043200FD010314FD0D282A01300310F80DF90DFA
:10044200FF3E031D1E2A0130FC007C08FD07F91F38
:100452002B2A2C2A1D2A79087B02031D322A7808AE
:100462007A02031C352A362A3C2A7808FA027908CD
:10047200031CFB03FB0201300310F90CF80CFF3ED6
:10048200031D3D2A0130FD02031D482A492A2C2A58
:100492007B08F901F9077A08F801F807080000302B
:1004A200F5000030F600710870040319592A5A2A1F
:1004B200922AF7010314F70D692A01300310F00D97
:1004C200F10DFF3E031D5F2A0130F4007408F707A7
:1004D200F11F6C2A6D2A5E2A01300310F50DF60D0C
:1004E200FF3E031D6E2A71087302031D7A2A7008EB
:1004F2007202031C7D2A7E2A852A7008F202710884
:10050200031CF303F302751401300310F10CF00C19
:10051200FF3E031D862A0130F702031D912A922A0B
:100522006D2A7608F101F1077508F001F00708005D
:100532000310003003180130F600F31FA12AA22A8B
:10054200AA2AF209F309F20A0319F30AF6010314BB
:10055200F60DF11FAD2AAE2AB32AF009F109F00A0D
:100562000319F10A710870040319B82AB92AE92A91
:10057200F5010314F50DC82A01300310F00DF10D39
:10058200FF3E031DBE2A0130F4007408F507F11F77
:10059200CB2ACC2ABD2A71087302031DD22A700805
:1005A2007202031CD52AD62ADC2A7008F2027108CC
:1005B200031CF303F30201300310F10CF00CFF3EB5
:1005C200031DDD2A0130F502031DE82AE92ACC2A9F
:1005D2007608031DED2AF22AF209F309F20A031939
:1005E200F30A7308F101F1077208F001F00708003D
:1005F2000310003003180130F600F11F012B022B0B
:100602000A2BF009F109F00A0319F10AF6010314A1
:10061200F60DF31F0D2B0E2B172BF209F309F20A1D
:100622000319F30A0130F4007408F6060030F700EB
:100632000030F800710870040319202B212B592B6C
:10064200F5010314F50D302B01300310F00DF10DFF
:10065200FF3E031D262B0130F4007408F507F11F3D
:10066200332B342B252B01300310F70DF80DFF3EF1
:10067200031D352B71087302031D412B7008720292
:10068200031C442B452B4C2B7008F2027108031CEF
:10069200F303F302771401300310F10CF00CFF3E68
:1006A200031D4D2B0130F502031D582B592B342B02
:1006B2007608031D5D2B622BF709F809F70A031967
:1006C200F80A7808F101F1077708F001F00708004D
:1006D2007308031D6D2B742B720871047004031DC3
:1006E200732B742B7B2B0030F0000030F1000030B4
:1006F200F200DD2B882B0130F5007508F30701307D
:100702000310F20CF10CF00CFF3E031D812BFE30A6
:100712007205031D8D2B8E2B7C2BA52B0130F50032
:100722007508F3070130F007003003180130F107B4
:10073200003003180130F20701300310F20CF10C03
:10074200F00CFF3E031D9E2BFF307205031DAA2BEA
:10075200AB2B8F2BB62B0130F30201300310F00DBF
:10076200F10DF20DFF3E031DAF2BF11FB92BBA2B7A
:10077200AC2B7318BD2BBE2BC42BFF30F0057F3082
:10078200F105FF30F2050310F30C7308F500F601D2
:10079200F70110300310F50DF60DF70DFF3E031DA6
:1007A200CB2B7508F0047608F1047708F20474087C
:1007B200031DDC2BDD2BF2170800780883120313CC
:1007C200A0007908A1007A08A2000310210D220DD1
:1007D200A3002308A900A908031DF02BF12BFA2B73
:1007E2000030FB000030FA000030F9000030F80061
:1007F200792C7808A0007908A1007A08A2001730A5
:100802000310A20CA10CA00CFF3E031D012C20081A
:10081200A3002308A400F917FF30F805FF30F905FB
:100822000030FA057808A5007908A6007A08A70022
:10083200A8018E30A902A91F1F2C202C422C2908A6
:10084200803A8F3E0318262C272C302C0030FB00D8
:100852000030FA000030F9000030F800792C013045
:100862000310A80CA70CA60CA50CFF3E031D312CEF
:100872000130A0002008A907031D402C412C302C78
:10088200622C18302902031C472C482C512C0030B2
:10089200FB000030FA000030F9000030F800792C3B
:1008A2005D2C0130A0000310A50DA60DA70DA80D0B
:1008B200A00B542C0130A902A908031D612C622C43
:1008C200522C2408031D662C712CA509A609A70920
:1008D200A809A50A0319A60A0319A70A0319A80A4F
:1008E2002808FB002708FA002608F9002508F80066
:1008F2000800831203132E08B4002F08B500300835
:10090200B6000310350D360DB7003708B800B80829
:10091200031D8C2C8D2C942C0030AE000030AF00C7
:100922000030B0005E2D3108B4003208B500330843
:10093200B6000310350D360DB7003708BD00BD08EF
:10094200031DA42CA52CAC2C0030AE000030AF004F
:100952000030B0005E2D3D087B3EB4003408B8077D
:100962002E08B4002F08B5003008B600103003106E
:10097200B60CB50CB40CFF3E031DB82C3408B700FE
:100982003708BD003108B4003208B5003308B6009C
:1009920010300310B60CB50CB40CFF3E031DCA2C6C
:1009A2003408B7003708BD068030B4003408BD05EE
:1009B200AF17B217FF30B105FF30B2050030B305F3
:1009C2000030B9000030BA000030BB000730B4007C
:1009D2003408BC002E1CEE2CEF2CFF2C3108B9077A
:1009E200320803110318320A0319F82CBA07330824
:1009F20003110318330A0319FF2CBB07013003103C
:100A0200B00CAF0CAE0CFF3E031D002D01300310E5
:100A1200B10DB20DB30DFF3E031D082D0130BC0216
:100A2200031D142D152DEB2C0930B4003408BC0025
:100A32002E1C1C2D1D2D2D2D3108B9073208031136
:100A42000318320A0319262DBA07330803110318B3
:100A5200330A03192D2DBB0701300310B00CAF0C64
:100A6200AE0CFF3E031D2E2D01300310BB0CBA0C41
:100A7200B90CFF3E031D362D0130BC02031D422D71
:100A8200432D192D3908F0003A08F1003B08F20015
:100A92003808B4003408F3003D08B5003508F40006
:100AA2000A128A1169230A128A1170088312031327
:100AB200AE007108AF007208B00008008312031381
:100AC200B1002130A7002708AA00402E3208253A9B
:100AD20003196C2D6D2D792D3208A7003108840081
:100AE2002708831780000130A7002708B107402E8E
:100AF2000310003003180130AB00832D542E9A2DC1
:100B0200402E9A2D00010138A0070001FF3820076E
:100B120084000A128A1103200A128A11B200003AD2
:100B220003197F2D643A0319802D0D3A0319802D84
:100B3200812D2A08840083130008AD00840A00086E
:100B4200AE000230A7002708AA07AE1FA92DAA2DC2
:100B5200B32D0330A7002708AB04AD09AE09AD0AD7
:100B62000319AE0AB2010314B20D3208053A031D8D
:100B7200BB2DBC2DBD2DE32D3208A7002707013E5A
:100B820084000A128A1103200A128A11A8000A128A
:100B92008A1103200A128A11A90029082E02031DB4
:100BA200D42D28082D020318D72DD82DD92DE32DA9
:100BB2000130A7002708B2073208053A031DE22DCB
:100BC200E32DBD2D2B0803390319E82DE92DF42D52
:100BD2002D30A700310884002708831780000130D8
:100BE200A7002708B1073208A7002708AC00362E55
:100BF2000A30F8000030F9002C08A7002707013E50
:100C020084000A128A1103200A128A11F0000A12C1
:100C12008A1103200A128A11F1002E08F301F30748
:100C22002D08F201F2070A128A1150220A128A11C1
:100C32007108FB01FB077008FA01FA070A128A1110
:100C420013220A128A117808303E83120313A80075
:100C52002808B2003208A700310884002708831749
:100C620080000130A7002708B107FF30A70027083E
:100C7200AC072C08FF3A031D3F2E402EF92D000130
:100C82000138A0070001FF38200784000A128A11E8
:100C920003200A128A11A7002708B200B208031D16
:100CA200532E542E672D0310310884000030031890
:100CB2000130800008000B30831603138600831274
:100CC2000313860183160313880183120313880119
:100CD2008316031387018312031387010A128A11F1
:100CE200CC210A128A110A128A117F210A128A1150
:100CF2008312031390018F018E0186140330BE000C
:100D0200BE0B812E831203138610872E061C8A2E99
:100D12008B2E872E10148D2E0618902E912E8D2E2E
:100D220010100F08BE00BF010830FE000310BE0DF8
:100D3200BF0DFE0B972E0E083E0483160317D0003C
:100D4200831203133F0883160317D100510883123D
:100D52000313AB01AB078316031750088312031367
:100D6200AA01AA070A128A11E5210A128A1183121C
:100D720003132A08B1002B08B2002C08B300443038
:100D8200AE008B30AF003C30B0000A128A117A24D8
:100D92000A128A11831203132E08F8002F08F90091
:100DA2003008FA000A128A11DE230A128A1179081F
:100DB20083160317E101E1077808E001E007DF305D
:100DC2000A128A116B210A128A110A128A116521EA
:100DD2000A128A1183120313BE003E0883160317F8
:100DE200DA000A30F0000030F1006108F301F30785
:100DF2006008F201F2070A128A11F9220A128A1114
:100E0200710883160317DC01DC077008DB01DB07BE
:100E12000A30F0000030F1006108F301F3076008C6
:100E2200F201F2070A128A1199220A128A11710832
:100E320083160317D301D3077008D201D2070A30F1
:100E4200F0000030F1005C08F301F3075B08F201E7
:100E5200F2070A128A11F9220A128A1171088316FC
:100E62000317DE01DE077008DD01DD070A30F0003E
:100E72000030F1005C08F301F3075B08F201F207AE
:100E82000A128A1199220A128A117108831603170B
:100E9200D501D5077008D401D4070A30F00000301C
:100EA200F1005E08F301F3075D08F201F2070A128E
:100EB2008A11F9220A128A11710883160317D701BF
:100EC200D7077008D601D6070A30F0000030F100CB
:100ED2005E08F301F3075D08F201F2070A128A11B4
:100EE20099220A128A11710883160317D901D907A8
:100EF2007008D801D80780300A128A118E210A128E
:100F02008A11831603175608303E0A128A11A1214C
:100F12000A128A11831603175808303E0A128A11E0
:100F2200A1210A128A11831603175408303E0A12AD
:100F32008A11A1210A128A11831603175208303E20
:100F42000A128A11A1210A128A110B308312031389
:100F5200BE003E08A0008316031761088312031324
:100F6200A201A20783160317600883120313A101CB
:100F7200A107831603175F0883120313BF00C00182
:100F82003F08A3004008A400831603175A088312DF
:100F92000313C100C2014108A5004208A600903017
:100FA2000A128A115F250A128A1139308312031339
:100FB200BE003E08A000B0300A128A115F250A1254
:100FC2008A1190300A128A11B4210A128A11B030A1
:100FD2000A128A11B4210A128A11033083120313EE
:100FE200C0008830BF005630BE00BE0BF62FBF0BCC
:0E0FF200F62FC00BF62F7C2E0A128A11002853
:02400E00723FFF
:00000001FF
